{
  "address": "0xDA0000d4000015A526378bB6faFc650Cea5966F8",
  "abi": [
    {
      "inputs": [
        {
          "internalType": "address",
          "name": "",
          "type": "address"
        },
        {
          "internalType": "address",
          "name": "",
          "type": "address"
        }
      ],
      "name": "allowance",
      "outputs": [
        {
          "internalType": "uint256",
          "name": "",
          "type": "uint256"
        }
      ],
      "stateMutability": "pure",
      "type": "function"
    },
    {
      "inputs": [
        {
          "internalType": "address",
          "name": "",
          "type": "address"
        },
        {
          "internalType": "uint256",
          "name": "",
          "type": "uint256"
        }
      ],
      "name": "approve",
      "outputs": [
        {
          "internalType": "bool",
          "name": "",
          "type": "bool"
        }
      ],
      "stateMutability": "pure",
      "type": "function"
    },
    {
      "inputs": [
        {
          "internalType": "address",
          "name": "",
          "type": "address"
        }
      ],
      "name": "balanceOf",
      "outputs": [
        {
          "internalType": "uint256",
          "name": "",
          "type": "uint256"
        }
      ],
      "stateMutability": "pure",
      "type": "function"
    },
    {
      "inputs": [
        {
          "internalType": "address",
          "name": "",
          "type": "address"
        },
        {
          "internalType": "uint256",
          "name": "",
          "type": "uint256"
        }
      ],
      "name": "transfer",
      "outputs": [
        {
          "internalType": "bool",
          "name": "",
          "type": "bool"
        }
      ],
      "stateMutability": "pure",
      "type": "function"
    },
    {
      "inputs": [
        {
          "internalType": "address",
          "name": "",
          "type": "address"
        },
        {
          "internalType": "address",
          "name": "",
          "type": "address"
        },
        {
          "internalType": "uint256",
          "name": "",
          "type": "uint256"
        }
      ],
      "name": "transferFrom",
      "outputs": [
        {
          "internalType": "bool",
          "name": "",
          "type": "bool"
        }
      ],
      "stateMutability": "pure",
      "type": "function"
    }
  ],
  "transactionHash": "0x2289dfe6487eb0020e46abf4960414e8eec8488039a829189f8bb4c593f27a95",
  "args": [],
  "numDeployments": 1,
  "bytecode": "0x60808060405234610016576101e8908161001c8239f35b600080fdfe6080604052600436101561001257600080fd5b6000803560e01c8063095ea7b3146100a357806323b872dd146100e357806370a08231146100a8578063a9059cbb146100a35763dd62ed3e1461005457600080fd5b346100a05760407ffffffffffffffffffffffffffffffffffffffffffffffffffffffffffffffffc3601126100a05760209061008e610130565b50610097610158565b50604051908152f35b80fd5b61017b565b50346100a05760207ffffffffffffffffffffffffffffffffffffffffffffffffffffffffffffffffc3601126100a057602090610097610130565b50346100a05760607ffffffffffffffffffffffffffffffffffffffffffffffffffffffffffffffffc3601126100a05761011b610130565b50610124610158565b50602060405160018152f35b6004359073ffffffffffffffffffffffffffffffffffffffff8216820361015357565b600080fd5b6024359073ffffffffffffffffffffffffffffffffffffffff8216820361015357565b346101535760407ffffffffffffffffffffffffffffffffffffffffffffffffffffffffffffffffc3601126101535761012461013056fea26469706673582212201a9ee1f1c54bdb3609deadfb64630a79f657f12d0077e402c2415afae4b5ccb064736f6c63430008170033"
}